{
  "_format": "hh-sol-artifact-1",
  "contractName": "StakingContract",
  "sourceName": "contracts/StakingContract.sol",
  "abi": [
    {
      "inputs": [
        {
          "internalType": "address",
          "name": "_usdtToken",
          "type": "address"
        }
      ],
      "stateMutability": "nonpayable",
      "type": "constructor"
    },
    {
      "inputs": [],
      "name": "DontHaveEnoughBalance",
      "type": "error"
    },
    {
      "inputs": [],
      "name": "StakingTimeIsRemain",
      "type": "error"
    },
    {
      "anonymous": false,
      "inputs": [
        {
          "indexed": false,
          "internalType": "address",
          "name": "by",
          "type": "address"
        },
        {
          "indexed": false,
          "internalType": "uint256",
          "name": "amount",
          "type": "uint256"
        }
      ],
      "name": "Staked",
      "type": "event"
    },
    {
      "anonymous": false,
      "inputs": [
        {
          "indexed": false,
          "internalType": "address",
          "name": "by",
          "type": "address"
        },
        {
          "indexed": false,
          "internalType": "uint256",
          "name": "amount",
          "type": "uint256"
        }
      ],
      "name": "Withdrawn",
      "type": "event"
    },
    {
      "inputs": [],
      "name": "Investment",
      "outputs": [
        {
          "internalType": "bool",
          "name": "",
          "type": "bool"
        }
      ],
      "stateMutability": "view",
      "type": "function"
    },
    {
      "inputs": [
        {
          "internalType": "bool",
          "name": "_status",
          "type": "bool"
        }
      ],
      "name": "InvetmentStatus",
      "outputs": [],
      "stateMutability": "nonpayable",
      "type": "function"
    },
    {
      "inputs": [
        {
          "internalType": "address[]",
          "name": "_stakers",
          "type": "address[]"
        }
      ],
      "name": "acceptInvestedWithdrawTokenRequest",
      "outputs": [],
      "stateMutability": "nonpayable",
      "type": "function"
    },
    {
      "inputs": [
        {
          "internalType": "address[]",
          "name": "_stakers",
          "type": "address[]"
        }
      ],
      "name": "acceptWithdrawTokenRequest",
      "outputs": [],
      "stateMutability": "nonpayable",
      "type": "function"
    },
    {
      "inputs": [
        {
          "internalType": "uint256",
          "name": "_amount",
          "type": "uint256"
        },
        {
          "internalType": "uint256",
          "name": "_persntage",
          "type": "uint256"
        }
      ],
      "name": "amountPercentage",
      "outputs": [
        {
          "internalType": "uint256",
          "name": "",
          "type": "uint256"
        }
      ],
      "stateMutability": "pure",
      "type": "function"
    },
    {
      "inputs": [],
      "name": "getInvestedTokensWithdrawRequesters",
      "outputs": [
        {
          "internalType": "address[]",
          "name": "",
          "type": "address[]"
        }
      ],
      "stateMutability": "view",
      "type": "function"
    },
    {
      "inputs": [],
      "name": "getTokensInvesters",
      "outputs": [
        {
          "internalType": "address[]",
          "name": "",
          "type": "address[]"
        }
      ],
      "stateMutability": "view",
      "type": "function"
    },
    {
      "inputs": [],
      "name": "getWithdrawRequesters",
      "outputs": [
        {
          "internalType": "address[]",
          "name": "",
          "type": "address[]"
        }
      ],
      "stateMutability": "view",
      "type": "function"
    },
    {
      "inputs": [
        {
          "internalType": "uint256",
          "name": "",
          "type": "uint256"
        }
      ],
      "name": "investedUsers",
      "outputs": [
        {
          "internalType": "address",
          "name": "",
          "type": "address"
        }
      ],
      "stateMutability": "view",
      "type": "function"
    },
    {
      "inputs": [
        {
          "internalType": "uint256",
          "name": "",
          "type": "uint256"
        }
      ],
      "name": "investedWithdrawRequesters",
      "outputs": [
        {
          "internalType": "address",
          "name": "",
          "type": "address"
        }
      ],
      "stateMutability": "view",
      "type": "function"
    },
    {
      "inputs": [
        {
          "internalType": "address",
          "name": "",
          "type": "address"
        }
      ],
      "name": "invester",
      "outputs": [
        {
          "internalType": "bool",
          "name": "",
          "type": "bool"
        }
      ],
      "stateMutability": "view",
      "type": "function"
    },
    {
      "inputs": [
        {
          "internalType": "address",
          "name": "",
          "type": "address"
        }
      ],
      "name": "invetedTokenWithdrawRequest",
      "outputs": [
        {
          "internalType": "uint256",
          "name": "",
          "type": "uint256"
        }
      ],
      "stateMutability": "view",
      "type": "function"
    },
    {
      "inputs": [],
      "name": "isReferal",
      "outputs": [
        {
          "internalType": "bool",
          "name": "",
          "type": "bool"
        }
      ],
      "stateMutability": "view",
      "type": "function"
    },
    {
      "inputs": [
        {
          "internalType": "bool",
          "name": "_status",
          "type": "bool"
        }
      ],
      "name": "isReferalEnable",
      "outputs": [],
      "stateMutability": "nonpayable",
      "type": "function"
    },
    {
      "inputs": [],
      "name": "owner",
      "outputs": [
        {
          "internalType": "address",
          "name": "",
          "type": "address"
        }
      ],
      "stateMutability": "view",
      "type": "function"
    },
    {
      "inputs": [
        {
          "internalType": "address",
          "name": "",
          "type": "address"
        }
      ],
      "name": "referalAddres",
      "outputs": [
        {
          "internalType": "uint256",
          "name": "",
          "type": "uint256"
        }
      ],
      "stateMutability": "view",
      "type": "function"
    },
    {
      "inputs": [],
      "name": "referralPersontage",
      "outputs": [
        {
          "internalType": "uint256",
          "name": "",
          "type": "uint256"
        }
      ],
      "stateMutability": "view",
      "type": "function"
    },
    {
      "inputs": [],
      "name": "reqWithdrawStakingTokens",
      "outputs": [],
      "stateMutability": "nonpayable",
      "type": "function"
    },
    {
      "inputs": [
        {
          "internalType": "uint256",
          "name": "_amountToBeDistribute",
          "type": "uint256"
        }
      ],
      "name": "rewardDistributed",
      "outputs": [],
      "stateMutability": "nonpayable",
      "type": "function"
    },
    {
      "inputs": [
        {
          "internalType": "uint256",
          "name": "_persontage",
          "type": "uint256"
        }
      ],
      "name": "setReferralPersntage",
      "outputs": [],
      "stateMutability": "nonpayable",
      "type": "function"
    },
    {
      "inputs": [
        {
          "internalType": "address",
          "name": "",
          "type": "address"
        }
      ],
      "name": "staking",
      "outputs": [
        {
          "internalType": "uint256",
          "name": "stakedTokens",
          "type": "uint256"
        },
        {
          "internalType": "uint256",
          "name": "rewardedTokens",
          "type": "uint256"
        },
        {
          "internalType": "uint256",
          "name": "stakingTime",
          "type": "uint256"
        },
        {
          "internalType": "uint256",
          "name": "stakingEndTime",
          "type": "uint256"
        },
        {
          "internalType": "uint256",
          "name": "totalProfit",
          "type": "uint256"
        }
      ],
      "stateMutability": "view",
      "type": "function"
    },
    {
      "inputs": [
        {
          "internalType": "uint256",
          "name": "_tokens",
          "type": "uint256"
        },
        {
          "internalType": "address",
          "name": "_referal",
          "type": "address"
        }
      ],
      "name": "stakingTokens",
      "outputs": [],
      "stateMutability": "nonpayable",
      "type": "function"
    },
    {
      "inputs": [
        {
          "internalType": "address",
          "name": "",
          "type": "address"
        }
      ],
      "name": "tokenWithdrawRequest",
      "outputs": [
        {
          "internalType": "uint256",
          "name": "",
          "type": "uint256"
        }
      ],
      "stateMutability": "view",
      "type": "function"
    },
    {
      "inputs": [],
      "name": "totalInvesters",
      "outputs": [
        {
          "internalType": "uint256",
          "name": "",
          "type": "uint256"
        }
      ],
      "stateMutability": "view",
      "type": "function"
    },
    {
      "inputs": [],
      "name": "totalReferrels",
      "outputs": [
        {
          "internalType": "uint256",
          "name": "",
          "type": "uint256"
        }
      ],
      "stateMutability": "view",
      "type": "function"
    },
    {
      "inputs": [],
      "name": "totalRewardDistributed",
      "outputs": [
        {
          "internalType": "uint256",
          "name": "",
          "type": "uint256"
        }
      ],
      "stateMutability": "view",
      "type": "function"
    },
    {
      "inputs": [],
      "name": "totalStakedAmount",
      "outputs": [
        {
          "internalType": "uint256",
          "name": "",
          "type": "uint256"
        }
      ],
      "stateMutability": "view",
      "type": "function"
    },
    {
      "inputs": [],
      "name": "usdtToken",
      "outputs": [
        {
          "internalType": "contract IERC20",
          "name": "",
          "type": "address"
        }
      ],
      "stateMutability": "view",
      "type": "function"
    },
    {
      "inputs": [],
      "name": "withdrawRequestStakedTokens",
      "outputs": [],
      "stateMutability": "nonpayable",
      "type": "function"
    },
    {
      "inputs": [
        {
          "internalType": "uint256",
          "name": "",
          "type": "uint256"
        }
      ],
      "name": "withdrawRequesters",
      "outputs": [
        {
          "internalType": "address",
          "name": "",
          "type": "address"
        }
      ],
      "stateMutability": "view",
      "type": "function"
    },
    {
      "inputs": [
        {
          "internalType": "uint256",
          "name": "_amount",
          "type": "uint256"
        }
      ],
      "name": "withdrawTokens",
      "outputs": [],
      "stateMutability": "nonpayable",
      "type": "function"
    }
  ],
  "bytecode": "0x60806040523480156200001157600080fd5b50604051620037af380380620037af833981810160405281019062000037919062000168565b80600f60006101000a81548173ffffffffffffffffffffffffffffffffffffffff021916908373ffffffffffffffffffffffffffffffffffffffff160217905550336000806101000a81548173ffffffffffffffffffffffffffffffffffffffff021916908373ffffffffffffffffffffffffffffffffffffffff1602179055506101f46004819055506001600660006101000a81548160ff0219169083151502179055506001600660016101000a81548160ff021916908315150217905550506200019a565b600080fd5b600073ffffffffffffffffffffffffffffffffffffffff82169050919050565b6000620001308262000103565b9050919050565b620001428162000123565b81146200014e57600080fd5b50565b600081519050620001628162000137565b92915050565b600060208284031215620001815762000180620000fe565b5b6000620001918482850162000151565b91505092915050565b61360580620001aa6000396000f3fe608060405234801561001057600080fd5b50600436106101e55760003560e01c8063567e98f91161010f5780638da5cb5b116100a2578063d1bba64f11610071578063d1bba64f1461056e578063d764b78f1461058c578063f03eb8ab146105c0578063f2fe5a28146105de576101e5565b80638da5cb5b146104f65780639f6fda9c14610514578063a98ad46c14610532578063af0afec914610550576101e5565b806376462c20116100de57806376462c201461044a5780637b755373146104665780638037e35614610496578063863f8237146104c6576101e5565b8063567e98f9146103c257806359df0d09146103e05780635a469100146103fc578063744cc76d1461041a576101e5565b806324271ad911610187578063315a095d11610156578063315a095d146103165780633611185c146103325780634027c130146103625780634c14e06614610392576101e5565b806324271ad9146102b65780632b6e31b4146102d25780632ffdf30e146102ee57806330188ee8146102f8576101e5565b80630a10f767116101c35780630a10f7671461025457806313509eea14610272578063137bff5a1461029057806313cb46e91461029a576101e5565b806305a14714146101ea57806308ee14b914610208578063095e5a5414610238575b600080fd5b6101f26105fa565b6040516101ff9190612a30565b60405180910390f35b610222600480360381019061021d9190612a92565b610688565b60405161022f9190612ad8565b60405180910390f35b610252600480360381019061024d9190612b1f565b6106a0565b005b61025c610cbd565b6040516102699190612a30565b60405180910390f35b61027a610d4b565b6040516102879190612ad8565b60405180910390f35b610298610d51565b005b6102b460048036038101906102af9190612b5f565b610e72565b005b6102d060048036038101906102cb9190612bc4565b610f0a565b005b6102ec60048036038101906102e79190612b5f565b610fb5565b005b6102f66114e9565b005b6103006119d9565b60405161030d9190612ad8565b60405180910390f35b610330600480360381019061032b9190612b5f565b6119df565b005b61034c60048036038101906103479190612b5f565b611b31565b6040516103599190612c00565b60405180910390f35b61037c60048036038101906103779190612a92565b611b70565b6040516103899190612ad8565b60405180910390f35b6103ac60048036038101906103a79190612a92565b611b88565b6040516103b99190612ad8565b60405180910390f35b6103ca611ba0565b6040516103d79190612ad8565b60405180910390f35b6103fa60048036038101906103f59190612d74565b611ba6565b005b610404611ffb565b6040516104119190612dcc565b60405180910390f35b610434600480360381019061042f9190612a92565b61200e565b6040516104419190612dcc565b60405180910390f35b610464600480360381019061045f9190612bc4565b61202e565b005b610480600480360381019061047b9190612de7565b6120d9565b60405161048d9190612ad8565b60405180910390f35b6104b060048036038101906104ab9190612b5f565b612140565b6040516104bd9190612c00565b60405180910390f35b6104e060048036038101906104db9190612b5f565b61217f565b6040516104ed9190612c00565b60405180910390f35b6104fe6121be565b60405161050b9190612c00565b60405180910390f35b61051c6121e2565b6040516105299190612a30565b60405180910390f35b61053a612270565b6040516105479190612e86565b60405180910390f35b610558612296565b6040516105659190612ad8565b60405180910390f35b61057661229c565b6040516105839190612dcc565b60405180910390f35b6105a660048036038101906105a19190612a92565b6122af565b6040516105b7959493929190612ea1565b60405180910390f35b6105c86122e5565b6040516105d59190612ad8565b60405180910390f35b6105f860048036038101906105f39190612d74565b6122eb565b005b6060600980548060200260200160405190810160405280929190818152602001828054801561067e57602002820191906000526020600020905b8160009054906101000a900473ffffffffffffffffffffffffffffffffffffffff1673ffffffffffffffffffffffffffffffffffffffff1681526020019060010190808311610634575b5050505050905090565b600b6020528060005260406000206000915090505481565b600660019054906101000a900460ff166106ef576040517f08c379a00000000000000000000000000000000000000000000000000000000081526004016106e690612f77565b60405180910390fd5b60008211610732576040517f08c379a000000000000000000000000000000000000000000000000000000000815260040161072990612fe3565b60405180910390fd5b81600f60009054906101000a900473ffffffffffffffffffffffffffffffffffffffff1673ffffffffffffffffffffffffffffffffffffffff166370a08231336040518263ffffffff1660e01b815260040161078e9190612c00565b602060405180830381865afa1580156107ab573d6000803e3d6000fd5b505050506040513d601f19601f820116820180604052508101906107cf9190613018565b1015610807576040517f1368af5900000000000000000000000000000000000000000000000000000000815260040160405180910390fd5b6000600a60003373ffffffffffffffffffffffffffffffffffffffff1673ffffffffffffffffffffffffffffffffffffffff1681526020019081526020016000206000015490506000600a60003373ffffffffffffffffffffffffffffffffffffffff1673ffffffffffffffffffffffffffffffffffffffff1681526020019081526020016000206001015490506000600a60003373ffffffffffffffffffffffffffffffffffffffff1673ffffffffffffffffffffffffffffffffffffffff168152602001908152602001600020600401549050600f60009054906101000a900473ffffffffffffffffffffffffffffffffffffffff1673ffffffffffffffffffffffffffffffffffffffff166323b872dd3360008054906101000a900473ffffffffffffffffffffffffffffffffffffffff16886040518463ffffffff1660e01b815260040161095b93929190613045565b6020604051808303816000875af115801561097a573d6000803e3d6000fd5b505050506040513d601f19601f8201168201806040525081019061099e9190613091565b5084600360008282546109b191906130ed565b9250508190555060006078426109c791906130ed565b90506040518060a0016040528087866109e091906130ed565b815260200184815260200142815260200182815260200183815250600a60003373ffffffffffffffffffffffffffffffffffffffff1673ffffffffffffffffffffffffffffffffffffffff1681526020019081526020016000206000820151816000015560208201518160010155604082015181600201556060820151816003015560808201518160040155905050600660009054906101000a900460ff1615610b9057600073ffffffffffffffffffffffffffffffffffffffff168573ffffffffffffffffffffffffffffffffffffffff1614610b8f576000610ac6876004546120d9565b905080600b60008873ffffffffffffffffffffffffffffffffffffffff1673ffffffffffffffffffffffffffffffffffffffff1681526020019081526020016000206000828254610b1791906130ed565b925050819055506001600d60008873ffffffffffffffffffffffffffffffffffffffff1673ffffffffffffffffffffffffffffffffffffffff1681526020019081526020016000206000828254610b6e91906130ed565b9250508190555060016000815480929190610b8890613121565b9190505550505b5b600e60003373ffffffffffffffffffffffffffffffffffffffff1673ffffffffffffffffffffffffffffffffffffffff16815260200190815260200160002060009054906101000a900460ff16610cb5576009339080600181540180825580915050600190039060005260206000200160009091909190916101000a81548173ffffffffffffffffffffffffffffffffffffffff021916908373ffffffffffffffffffffffffffffffffffffffff1602179055506001600e60003373ffffffffffffffffffffffffffffffffffffffff1673ffffffffffffffffffffffffffffffffffffffff16815260200190815260200160002060006101000a81548160ff02191690831515021790555060026000815480929190610caf90613121565b91905055505b505050505050565b60606007805480602002602001604051908101604052809291908181526020018280548015610d4157602002820191906000526020600020905b8160009054906101000a900473ffffffffffffffffffffffffffffffffffffffff1673ffffffffffffffffffffffffffffffffffffffff1681526020019060010190808311610cf7575b5050505050905090565b60015481565b6000600a60003373ffffffffffffffffffffffffffffffffffffffff1673ffffffffffffffffffffffffffffffffffffffff16815260200190815260200160002090506000816001015490506000826001018190555080600b60003373ffffffffffffffffffffffffffffffffffffffff1673ffffffffffffffffffffffffffffffffffffffff1681526020019081526020016000206000828254610df691906130ed565b92505081905550610e063361271f565b610e6e576007339080600181540180825580915050600190039060005260206000200160009091909190916101000a81548173ffffffffffffffffffffffffffffffffffffffff021916908373ffffffffffffffffffffffffffffffffffffffff1602179055505b5050565b60008054906101000a900473ffffffffffffffffffffffffffffffffffffffff1673ffffffffffffffffffffffffffffffffffffffff163373ffffffffffffffffffffffffffffffffffffffff1614610f00576040517f08c379a0000000000000000000000000000000000000000000000000000000008152600401610ef7906131db565b60405180910390fd5b8060048190555050565b60008054906101000a900473ffffffffffffffffffffffffffffffffffffffff1673ffffffffffffffffffffffffffffffffffffffff163373ffffffffffffffffffffffffffffffffffffffff1614610f98576040517f08c379a0000000000000000000000000000000000000000000000000000000008152600401610f8f906131db565b60405180910390fd5b80600660006101000a81548160ff02191690831515021790555050565b60008054906101000a900473ffffffffffffffffffffffffffffffffffffffff1673ffffffffffffffffffffffffffffffffffffffff163373ffffffffffffffffffffffffffffffffffffffff1614611043576040517f08c379a000000000000000000000000000000000000000000000000000000000815260040161103a906131db565b60405180910390fd5b600080600090505b60098054905081101561115c5760006009828154811061106e5761106d6131fb565b5b9060005260206000200160009054906101000a900473ffffffffffffffffffffffffffffffffffffffff169050601e600a60008373ffffffffffffffffffffffffffffffffffffffff1673ffffffffffffffffffffffffffffffffffffffff168152602001908152602001600020600201546110ea91906130ed565b421115611148576000600a60008373ffffffffffffffffffffffffffffffffffffffff1673ffffffffffffffffffffffffffffffffffffffff168152602001908152602001600020600001549050808461114491906130ed565b9350505b50808061115490613121565b91505061104b565b50600081116111a0576040517f08c379a000000000000000000000000000000000000000000000000000000000815260040161119790613276565b60405180910390fd5b60005b6009805490508110156114e4576000600982815481106111c6576111c56131fb565b5b9060005260206000200160009054906101000a900473ffffffffffffffffffffffffffffffffffffffff169050601e600a60008373ffffffffffffffffffffffffffffffffffffffff1673ffffffffffffffffffffffffffffffffffffffff1681526020019081526020016000206002015461124291906130ed565b4211156114d057611288846040518060400160405280601581526020017f5f616d6f756e74546f42654469737472696275746500000000000000000000008152506127cd565b6112c7836040518060400160405280601281526020017f746f74616c456c696769626c5374616b656400000000000000000000000000008152506127cd565b6000836064866112d79190613296565b6112e19190613307565b90506000606482600a60008673ffffffffffffffffffffffffffffffffffffffff1673ffffffffffffffffffffffffffffffffffffffff168152602001908152602001600020600001546113359190613296565b61133f9190613307565b9050611380816040518060400160405280600a81526020017f75736572526577617264000000000000000000000000000000000000000000008152506127cd565b80600a60008573ffffffffffffffffffffffffffffffffffffffff1673ffffffffffffffffffffffffffffffffffffffff16815260200190815260200160002060010160008282546113d291906130ed565b9250508190555080600a60008573ffffffffffffffffffffffffffffffffffffffff1673ffffffffffffffffffffffffffffffffffffffff168152602001908152602001600020600401600082825461142b91906130ed565b925050819055506114736005546040518060400160405280601681526020017f746f74616c5265776172644469737472696275746564000000000000000000008152506127cd565b806005600082825461148591906130ed565b925050819055506114cd6005546040518060400160405280601781526020017f746f74616c5265776172644469737472696275746564320000000000000000008152506127cd565b50505b5080806114dc90613121565b9150506111a3565b505050565b6000600a60003373ffffffffffffffffffffffffffffffffffffffff1673ffffffffffffffffffffffffffffffffffffffff16815260200190815260200160002090506000816000015411611573576040517f08c379a000000000000000000000000000000000000000000000000000000000815260040161156a90613384565b60405180910390fd5b80600301544210156115b1576040517f070736f400000000000000000000000000000000000000000000000000000000815260040160405180910390fd5b600081600001549050600e60003373ffffffffffffffffffffffffffffffffffffffff1673ffffffffffffffffffffffffffffffffffffffff16815260200190815260200160002060009054906101000a900460ff16156117f3576000600e60003373ffffffffffffffffffffffffffffffffffffffff1673ffffffffffffffffffffffffffffffffffffffff16815260200190815260200160002060006101000a81548160ff02191690831515021790555060006009905060005b81805490508110156117f0573373ffffffffffffffffffffffffffffffffffffffff168282815481106116a3576116a26131fb565b5b9060005260206000200160009054906101000a900473ffffffffffffffffffffffffffffffffffffffff1673ffffffffffffffffffffffffffffffffffffffff16036117dd5781600183805490506116fb91906133a4565b8154811061170c5761170b6131fb565b5b9060005260206000200160009054906101000a900473ffffffffffffffffffffffffffffffffffffffff1682828154811061174a576117496131fb565b5b9060005260206000200160006101000a81548173ffffffffffffffffffffffffffffffffffffffff021916908373ffffffffffffffffffffffffffffffffffffffff160217905550818054806117a3576117a26133d8565b5b6001900381819060005260206000200160006101000a81549073ffffffffffffffffffffffffffffffffffffffff021916905590556117f0565b80806117e890613121565b91505061166d565b50505b806003600082825461180591906133a4565b925050819055506002600081548092919061181f90613407565b91905055506000600a60003373ffffffffffffffffffffffffffffffffffffffff1673ffffffffffffffffffffffffffffffffffffffff1681526020019081526020016000206004015490506040518060a001604052806000815260200184600101548152602001600081526020016000815260200182815250600a60003373ffffffffffffffffffffffffffffffffffffffff1673ffffffffffffffffffffffffffffffffffffffff168152602001908152602001600020600082015181600001556020820151816001015560408201518160020155606082015181600301556080820151816004015590505081600c60003373ffffffffffffffffffffffffffffffffffffffff1673ffffffffffffffffffffffffffffffffffffffff168152602001908152602001600020600082825461195c91906130ed565b9250508190555061196c33612869565b6119d4576008339080600181540180825580915050600190039060005260206000200160009091909190916101000a81548173ffffffffffffffffffffffffffffffffffffffff021916908373ffffffffffffffffffffffffffffffffffffffff1602179055505b505050565b60055481565b60008054906101000a900473ffffffffffffffffffffffffffffffffffffffff1673ffffffffffffffffffffffffffffffffffffffff163373ffffffffffffffffffffffffffffffffffffffff1614611a6d576040517f08c379a0000000000000000000000000000000000000000000000000000000008152600401611a64906131db565b60405180910390fd5b600f60009054906101000a900473ffffffffffffffffffffffffffffffffffffffff1673ffffffffffffffffffffffffffffffffffffffff1663a9059cbb60008054906101000a900473ffffffffffffffffffffffffffffffffffffffff16836040518363ffffffff1660e01b8152600401611aea929190613430565b6020604051808303816000875af1158015611b09573d6000803e3d6000fd5b505050506040513d601f19601f82011682018060405250810190611b2d9190613091565b5050565b60098181548110611b4157600080fd5b906000526020600020016000915054906101000a900473ffffffffffffffffffffffffffffffffffffffff1681565b600c6020528060005260406000206000915090505481565b600d6020528060005260406000206000915090505481565b60035481565b60008054906101000a900473ffffffffffffffffffffffffffffffffffffffff1673ffffffffffffffffffffffffffffffffffffffff163373ffffffffffffffffffffffffffffffffffffffff1614611c34576040517f08c379a0000000000000000000000000000000000000000000000000000000008152600401611c2b906131db565b60405180910390fd5b60005b8151811015611ff7576000828281518110611c5557611c546131fb565b5b60200260200101519050600073ffffffffffffffffffffffffffffffffffffffff168173ffffffffffffffffffffffffffffffffffffffff1603611cce576040517f08c379a0000000000000000000000000000000000000000000000000000000008152600401611cc5906134a5565b60405180910390fd5b6000600b60008373ffffffffffffffffffffffffffffffffffffffff1673ffffffffffffffffffffffffffffffffffffffff1681526020019081526020016000205490506000611d1f8260146120d9565b905060008183611d2f91906133a4565b90506000600b60008673ffffffffffffffffffffffffffffffffffffffff1673ffffffffffffffffffffffffffffffffffffffff1681526020019081526020016000208190555060006007905060005b8180549050811015611f02578573ffffffffffffffffffffffffffffffffffffffff16828281548110611db557611db46131fb565b5b9060005260206000200160009054906101000a900473ffffffffffffffffffffffffffffffffffffffff1673ffffffffffffffffffffffffffffffffffffffff1603611eef578160018380549050611e0d91906133a4565b81548110611e1e57611e1d6131fb565b5b9060005260206000200160009054906101000a900473ffffffffffffffffffffffffffffffffffffffff16828281548110611e5c57611e5b6131fb565b5b9060005260206000200160006101000a81548173ffffffffffffffffffffffffffffffffffffffff021916908373ffffffffffffffffffffffffffffffffffffffff16021790555081805480611eb557611eb46133d8565b5b6001900381819060005260206000200160006101000a81549073ffffffffffffffffffffffffffffffffffffffff02191690559055611f02565b8080611efa90613121565b915050611d7f565b50600f60009054906101000a900473ffffffffffffffffffffffffffffffffffffffff1673ffffffffffffffffffffffffffffffffffffffff166323b872dd3387856040518463ffffffff1660e01b8152600401611f6293929190613045565b6020604051808303816000875af1158015611f81573d6000803e3d6000fd5b505050506040513d601f19601f82011682018060405250810190611fa59190613091565b507f7084f5476618d8e60b11ef0d7d3f06914655adb8793e28ff7f018d4c76d505d58583604051611fd7929190613430565b60405180910390a150505050508080611fef90613121565b915050611c37565b5050565b600660009054906101000a900460ff1681565b600e6020528060005260406000206000915054906101000a900460ff1681565b60008054906101000a900473ffffffffffffffffffffffffffffffffffffffff1673ffffffffffffffffffffffffffffffffffffffff163373ffffffffffffffffffffffffffffffffffffffff16146120bc576040517f08c379a00000000000000000000000000000000000000000000000000000000081526004016120b3906131db565b60405180910390fd5b80600660016101000a81548160ff02191690831515021790555050565b6000612710821061211f576040517f08c379a000000000000000000000000000000000000000000000000000000000815260040161211690613511565b60405180910390fd5b816127108461212e9190613307565b6121389190613296565b905092915050565b6007818154811061215057600080fd5b906000526020600020016000915054906101000a900473ffffffffffffffffffffffffffffffffffffffff1681565b6008818154811061218f57600080fd5b906000526020600020016000915054906101000a900473ffffffffffffffffffffffffffffffffffffffff1681565b60008054906101000a900473ffffffffffffffffffffffffffffffffffffffff1681565b6060600880548060200260200160405190810160405280929190818152602001828054801561226657602002820191906000526020600020905b8160009054906101000a900473ffffffffffffffffffffffffffffffffffffffff1673ffffffffffffffffffffffffffffffffffffffff168152602001906001019080831161221c575b5050505050905090565b600f60009054906101000a900473ffffffffffffffffffffffffffffffffffffffff1681565b60025481565b600660019054906101000a900460ff1681565b600a6020528060005260406000206000915090508060000154908060010154908060020154908060030154908060040154905085565b60045481565b60008054906101000a900473ffffffffffffffffffffffffffffffffffffffff1673ffffffffffffffffffffffffffffffffffffffff163373ffffffffffffffffffffffffffffffffffffffff1614612379576040517f08c379a0000000000000000000000000000000000000000000000000000000008152600401612370906131db565b60405180910390fd5b60005b815181101561271b57600082828151811061239a576123996131fb565b5b60200260200101519050600073ffffffffffffffffffffffffffffffffffffffff168173ffffffffffffffffffffffffffffffffffffffff1603612413576040517f08c379a000000000000000000000000000000000000000000000000000000000815260040161240a906134a5565b60405180910390fd5b6000600c60008373ffffffffffffffffffffffffffffffffffffffff1673ffffffffffffffffffffffffffffffffffffffff1681526020019081526020016000205490506000600c60008473ffffffffffffffffffffffffffffffffffffffff1673ffffffffffffffffffffffffffffffffffffffff1681526020019081526020016000208190555060006008905060005b8180549050811015612628578373ffffffffffffffffffffffffffffffffffffffff168282815481106124db576124da6131fb565b5b9060005260206000200160009054906101000a900473ffffffffffffffffffffffffffffffffffffffff1673ffffffffffffffffffffffffffffffffffffffff160361261557816001838054905061253391906133a4565b81548110612544576125436131fb565b5b9060005260206000200160009054906101000a900473ffffffffffffffffffffffffffffffffffffffff16828281548110612582576125816131fb565b5b9060005260206000200160006101000a81548173ffffffffffffffffffffffffffffffffffffffff021916908373ffffffffffffffffffffffffffffffffffffffff160217905550818054806125db576125da6133d8565b5b6001900381819060005260206000200160006101000a81549073ffffffffffffffffffffffffffffffffffffffff02191690559055612628565b808061262090613121565b9150506124a5565b50600f60009054906101000a900473ffffffffffffffffffffffffffffffffffffffff1673ffffffffffffffffffffffffffffffffffffffff166323b872dd3385856040518463ffffffff1660e01b815260040161268893929190613045565b6020604051808303816000875af11580156126a7573d6000803e3d6000fd5b505050506040513d601f19601f820116820180604052508101906126cb9190613091565b507f7084f5476618d8e60b11ef0d7d3f06914655adb8793e28ff7f018d4c76d505d583836040516126fd929190613430565b60405180910390a1505050808061271390613121565b91505061237c565b5050565b600080600090505b6007805490508110156127c2578273ffffffffffffffffffffffffffffffffffffffff166007828154811061275f5761275e6131fb565b5b9060005260206000200160009054906101000a900473ffffffffffffffffffffffffffffffffffffffff1673ffffffffffffffffffffffffffffffffffffffff16036127af5760019150506127c8565b80806127ba90613121565b915050612727565b50600090505b919050565b61286582826040516024016127e392919061359f565b6040516020818303038152906040527f643fd0df000000000000000000000000000000000000000000000000000000007bffffffffffffffffffffffffffffffffffffffffffffffffffffffff19166020820180517bffffffffffffffffffffffffffffffffffffffffffffffffffffffff8381831617835250505050612917565b5050565b600080600090505b60088054905081101561290c578273ffffffffffffffffffffffffffffffffffffffff16600882815481106128a9576128a86131fb565b5b9060005260206000200160009054906101000a900473ffffffffffffffffffffffffffffffffffffffff1673ffffffffffffffffffffffffffffffffffffffff16036128f9576001915050612912565b808061290490613121565b915050612871565b50600090505b919050565b60008151905060006a636f6e736f6c652e6c6f679050602083016000808483855afa5050505050565b600081519050919050565b600082825260208201905092915050565b6000819050602082019050919050565b600073ffffffffffffffffffffffffffffffffffffffff82169050919050565b60006129978261296c565b9050919050565b6129a78161298c565b82525050565b60006129b9838361299e565b60208301905092915050565b6000602082019050919050565b60006129dd82612940565b6129e7818561294b565b93506129f28361295c565b8060005b83811015612a23578151612a0a88826129ad565b9750612a15836129c5565b9250506001810190506129f6565b5085935050505092915050565b60006020820190508181036000830152612a4a81846129d2565b905092915050565b6000604051905090565b600080fd5b600080fd5b612a6f8161298c565b8114612a7a57600080fd5b50565b600081359050612a8c81612a66565b92915050565b600060208284031215612aa857612aa7612a5c565b5b6000612ab684828501612a7d565b91505092915050565b6000819050919050565b612ad281612abf565b82525050565b6000602082019050612aed6000830184612ac9565b92915050565b612afc81612abf565b8114612b0757600080fd5b50565b600081359050612b1981612af3565b92915050565b60008060408385031215612b3657612b35612a5c565b5b6000612b4485828601612b0a565b9250506020612b5585828601612a7d565b9150509250929050565b600060208284031215612b7557612b74612a5c565b5b6000612b8384828501612b0a565b91505092915050565b60008115159050919050565b612ba181612b8c565b8114612bac57600080fd5b50565b600081359050612bbe81612b98565b92915050565b600060208284031215612bda57612bd9612a5c565b5b6000612be884828501612baf565b91505092915050565b612bfa8161298c565b82525050565b6000602082019050612c156000830184612bf1565b92915050565b600080fd5b6000601f19601f8301169050919050565b7f4e487b7100000000000000000000000000000000000000000000000000000000600052604160045260246000fd5b612c6982612c20565b810181811067ffffffffffffffff82111715612c8857612c87612c31565b5b80604052505050565b6000612c9b612a52565b9050612ca78282612c60565b919050565b600067ffffffffffffffff821115612cc757612cc6612c31565b5b602082029050602081019050919050565b600080fd5b6000612cf0612ceb84612cac565b612c91565b90508083825260208201905060208402830185811115612d1357612d12612cd8565b5b835b81811015612d3c5780612d288882612a7d565b845260208401935050602081019050612d15565b5050509392505050565b600082601f830112612d5b57612d5a612c1b565b5b8135612d6b848260208601612cdd565b91505092915050565b600060208284031215612d8a57612d89612a5c565b5b600082013567ffffffffffffffff811115612da857612da7612a61565b5b612db484828501612d46565b91505092915050565b612dc681612b8c565b82525050565b6000602082019050612de16000830184612dbd565b92915050565b60008060408385031215612dfe57612dfd612a5c565b5b6000612e0c85828601612b0a565b9250506020612e1d85828601612b0a565b9150509250929050565b6000819050919050565b6000612e4c612e47612e428461296c565b612e27565b61296c565b9050919050565b6000612e5e82612e31565b9050919050565b6000612e7082612e53565b9050919050565b612e8081612e65565b82525050565b6000602082019050612e9b6000830184612e77565b92915050565b600060a082019050612eb66000830188612ac9565b612ec36020830187612ac9565b612ed06040830186612ac9565b612edd6060830185612ac9565b612eea6080830184612ac9565b9695505050505050565b600082825260208201905092915050565b7f20496e766573746d656e7420697320636c6f73656420666f72206e6f772c206360008201527f6f6e746163742061646d696e20666f722064657461696c730000000000000000602082015250565b6000612f61603883612ef4565b9150612f6c82612f05565b604082019050919050565b60006020820190508181036000830152612f9081612f54565b9050919050565b7f416d6f756e742063616e6e6f7420626520300000000000000000000000000000600082015250565b6000612fcd601283612ef4565b9150612fd882612f97565b602082019050919050565b60006020820190508181036000830152612ffc81612fc0565b9050919050565b60008151905061301281612af3565b92915050565b60006020828403121561302e5761302d612a5c565b5b600061303c84828501613003565b91505092915050565b600060608201905061305a6000830186612bf1565b6130676020830185612bf1565b6130746040830184612ac9565b949350505050565b60008151905061308b81612b98565b92915050565b6000602082840312156130a7576130a6612a5c565b5b60006130b58482850161307c565b91505092915050565b7f4e487b7100000000000000000000000000000000000000000000000000000000600052601160045260246000fd5b60006130f882612abf565b915061310383612abf565b925082820190508082111561311b5761311a6130be565b5b92915050565b600061312c82612abf565b91507fffffffffffffffffffffffffffffffffffffffffffffffffffffffffffffffff820361315e5761315d6130be565b5b600182019050919050565b7f4f6e6c79206f776e65722063616e2063616c6c20746869732066756e6374696f60008201527f6e00000000000000000000000000000000000000000000000000000000000000602082015250565b60006131c5602183612ef4565b91506131d082613169565b604082019050919050565b600060208201905081810360008301526131f4816131b8565b9050919050565b7f4e487b7100000000000000000000000000000000000000000000000000000000600052603260045260246000fd5b7f4e6f204f6e6520456c696769626c652074696c6c204e6f770000000000000000600082015250565b6000613260601883612ef4565b915061326b8261322a565b602082019050919050565b6000602082019050818103600083015261328f81613253565b9050919050565b60006132a182612abf565b91506132ac83612abf565b92508282026132ba81612abf565b915082820484148315176132d1576132d06130be565b5b5092915050565b7f4e487b7100000000000000000000000000000000000000000000000000000000600052601260045260246000fd5b600061331282612abf565b915061331d83612abf565b92508261332d5761332c6132d8565b5b828204905092915050565b7f616c726561647920776974686461727720746f6b656e73000000000000000000600082015250565b600061336e601783612ef4565b915061337982613338565b602082019050919050565b6000602082019050818103600083015261339d81613361565b9050919050565b60006133af82612abf565b91506133ba83612abf565b92508282039050818111156133d2576133d16130be565b5b92915050565b7f4e487b7100000000000000000000000000000000000000000000000000000000600052603160045260246000fd5b600061341282612abf565b915060008203613425576134246130be565b5b600182039050919050565b60006040820190506134456000830185612bf1565b6134526020830184612ac9565b9392505050565b7f496e76616c696420616464726573730000000000000000000000000000000000600082015250565b600061348f600f83612ef4565b915061349a82613459565b602082019050919050565b600060208201905081810360008301526134be81613482565b9050919050565b7f706c65617365206769766520636f727265637420250000000000000000000000600082015250565b60006134fb601583612ef4565b9150613506826134c5565b602082019050919050565b6000602082019050818103600083015261352a816134ee565b9050919050565b600081519050919050565b60005b8381101561355a57808201518184015260208101905061353f565b60008484015250505050565b600061357182613531565b61357b8185612ef4565b935061358b81856020860161353c565b61359481612c20565b840191505092915050565b60006040820190506135b46000830185612ac9565b81810360208301526135c68184613566565b9050939250505056fea264697066735822122095fcf02933ed3a23af042f4f7ec89edab439c9b19c3b789026b9c5600729494964736f6c63430008120033",
  "linkReferences": {},
  "deployedLinkReferences": {}
}